S123E000862AB7E0EDBDE07CB6E0ED816425028064B7E0ECCEE088BDE809CEE0B5BDE809C4
S123E020BDE8068030B7E0E9BDE806810D260DB6E0E9B7E0EA8600B7E0E920058030B7E023
S123E040EAB6E0E948B7E0EBB6E0E9484848BBE0EBBBE0EA16B6E0EC11271125022205CE2A
S123E060E0BE2003CEE0C9BDE80920AECEE0D3BDE809BDE8068159278C7EE8DFB6E0ED4475
S123E080240288B4B7E0ED390A0D49274D205448494E4B494E47204F462041204E554D42A5
S123E0A04552204245545745454E203020414E442039392E040A0D47554553533F040A0D9C
S123E0C0544F4F2048494748040A0D544F4F204C4F57040A0D57494E4E45522120504C41DF
S10CE0E05920414741494E3F0417
S9030000FC
