S123E000862AB7E0EBBDE07AB6E0EB816424F6B7E0EACEE086BDE809CEE0B3BDE809BDE81C
S123E020068030B7E0E7BDE806810D260DB6E0E7B7E0E88600B7E0E720058030B7E0E8B632
S123E040E0E748B7E0E9B6E0E7484848BBE0E9BBE0E816B6E0EA11271125022205CEE0BC3A
S123E0602003CEE0C7BDE80920AECEE0D1BDE809BDE8068159278E7EE8DFB6E0EB442402F1
S123E08088B4B7E0EB390A0D49274D205448494E4B494E47204F462041204E554D42455236
S123E0A0204245545745454E203020414E442039392E040A0D47554553533F040A0D544F90
S123E0C04F2048494748040A0D544F4F204C4F57040A0D57494E4E45522120504C41592009
S10AE0E0414741494E3F0492
S9030000FC
